{
  "_format": "hh-sol-artifact-1",
  "contractName": "ChainTorqueMarketplace",
  "sourceName": "contracts/ChainTorqueMarketplace.sol",
  "abi": [
    {
      "inputs": [],
      "stateMutability": "nonpayable",
      "type": "constructor"
    },
    {
      "anonymous": false,
      "inputs": [
        {
          "indexed": true,
          "internalType": "address",
          "name": "owner",
          "type": "address"
        },
        {
          "indexed": true,
          "internalType": "address",
          "name": "approved",
          "type": "address"
        },
        {
          "indexed": true,
          "internalType": "uint256",
          "name": "tokenId",
          "type": "uint256"
        }
      ],
      "name": "Approval",
      "type": "event"
    },
    {
      "anonymous": false,
      "inputs": [
        {
          "indexed": true,
          "internalType": "address",
          "name": "owner",
          "type": "address"
        },
        {
          "indexed": true,
          "internalType": "address",
          "name": "operator",
          "type": "address"
        },
        {
          "indexed": false,
          "internalType": "bool",
          "name": "approved",
          "type": "bool"
        }
      ],
      "name": "ApprovalForAll",
      "type": "event"
    },
    {
      "anonymous": false,
      "inputs": [
        {
          "indexed": false,
          "internalType": "uint256",
          "name": "_fromTokenId",
          "type": "uint256"
        },
        {
          "indexed": false,
          "internalType": "uint256",
          "name": "_toTokenId",
          "type": "uint256"
        }
      ],
      "name": "BatchMetadataUpdate",
      "type": "event"
    },
    {
      "anonymous": false,
      "inputs": [
        {
          "indexed": true,
          "internalType": "uint256",
          "name": "tokenId",
          "type": "uint256"
        },
        {
          "indexed": false,
          "internalType": "address",
          "name": "seller",
          "type": "address"
        },
        {
          "indexed": false,
          "internalType": "address",
          "name": "owner",
          "type": "address"
        },
        {
          "indexed": false,
          "internalType": "uint256",
          "name": "price",
          "type": "uint256"
        },
        {
          "indexed": false,
          "internalType": "bool",
          "name": "sold",
          "type": "bool"
        },
        {
          "indexed": false,
          "internalType": "string",
          "name": "category",
          "type": "string"
        },
        {
          "indexed": false,
          "internalType": "string",
          "name": "title",
          "type": "string"
        }
      ],
      "name": "MarketItemCreated",
      "type": "event"
    },
    {
      "anonymous": false,
      "inputs": [
        {
          "indexed": true,
          "internalType": "uint256",
          "name": "tokenId",
          "type": "uint256"
        },
        {
          "indexed": false,
          "internalType": "address",
          "name": "buyer",
          "type": "address"
        },
        {
          "indexed": false,
          "internalType": "uint256",
          "name": "price",
          "type": "uint256"
        }
      ],
      "name": "MarketItemSold",
      "type": "event"
    },
    {
      "anonymous": false,
      "inputs": [
        {
          "indexed": false,
          "internalType": "uint256",
          "name": "_tokenId",
          "type": "uint256"
        }
      ],
      "name": "MetadataUpdate",
      "type": "event"
    },
    {
      "anonymous": false,
      "inputs": [
        {
          "indexed": true,
          "internalType": "address",
          "name": "previousOwner",
          "type": "address"
        },
        {
          "indexed": true,
          "internalType": "address",
          "name": "newOwner",
          "type": "address"
        }
      ],
      "name": "OwnershipTransferred",
      "type": "event"
    },
    {
      "anonymous": false,
      "inputs": [
        {
          "indexed": true,
          "internalType": "address",
          "name": "from",
          "type": "address"
        },
        {
          "indexed": true,
          "internalType": "address",
          "name": "to",
          "type": "address"
        },
        {
          "indexed": true,
          "internalType": "uint256",
          "name": "tokenId",
          "type": "uint256"
        }
      ],
      "name": "Transfer",
      "type": "event"
    },
    {
      "inputs": [
        {
          "internalType": "address",
          "name": "to",
          "type": "address"
        },
        {
          "internalType": "uint256",
          "name": "tokenId",
          "type": "uint256"
        }
      ],
      "name": "approve",
      "outputs": [],
      "stateMutability": "nonpayable",
      "type": "function"
    },
    {
      "inputs": [
        {
          "internalType": "address",
          "name": "owner",
          "type": "address"
        }
      ],
      "name": "balanceOf",
      "outputs": [
        {
          "internalType": "uint256",
          "name": "",
          "type": "uint256"
        }
      ],
      "stateMutability": "view",
      "type": "function"
    },
    {
      "inputs": [
        {
          "internalType": "uint256",
          "name": "tokenId",
          "type": "uint256"
        }
      ],
      "name": "createMarketSale",
      "outputs": [],
      "stateMutability": "payable",
      "type": "function"
    },
    {
      "inputs": [
        {
          "internalType": "string",
          "name": "tokenURI",
          "type": "string"
        },
        {
          "internalType": "uint256",
          "name": "price",
          "type": "uint256"
        },
        {
          "internalType": "string",
          "name": "category",
          "type": "string"
        },
        {
          "internalType": "string",
          "name": "title",
          "type": "string"
        },
        {
          "internalType": "string",
          "name": "description",
          "type": "string"
        }
      ],
      "name": "createToken",
      "outputs": [
        {
          "internalType": "uint256",
          "name": "",
          "type": "uint256"
        }
      ],
      "stateMutability": "payable",
      "type": "function"
    },
    {
      "inputs": [],
      "name": "fetchItemsListed",
      "outputs": [
        {
          "components": [
            {
              "internalType": "uint256",
              "name": "tokenId",
              "type": "uint256"
            },
            {
              "internalType": "address payable",
              "name": "seller",
              "type": "address"
            },
            {
              "internalType": "address payable",
              "name": "owner",
              "type": "address"
            },
            {
              "internalType": "uint256",
              "name": "price",
              "type": "uint256"
            },
            {
              "internalType": "bool",
              "name": "sold",
              "type": "bool"
            },
            {
              "internalType": "string",
              "name": "category",
              "type": "string"
            },
            {
              "internalType": "string",
              "name": "title",
              "type": "string"
            },
            {
              "internalType": "string",
              "name": "description",
              "type": "string"
            }
          ],
          "internalType": "struct ChainTorqueMarketplace.MarketItem[]",
          "name": "",
          "type": "tuple[]"
        }
      ],
      "stateMutability": "view",
      "type": "function"
    },
    {
      "inputs": [],
      "name": "fetchMarketItems",
      "outputs": [
        {
          "components": [
            {
              "internalType": "uint256",
              "name": "tokenId",
              "type": "uint256"
            },
            {
              "internalType": "address payable",
              "name": "seller",
              "type": "address"
            },
            {
              "internalType": "address payable",
              "name": "owner",
              "type": "address"
            },
            {
              "internalType": "uint256",
              "name": "price",
              "type": "uint256"
            },
            {
              "internalType": "bool",
              "name": "sold",
              "type": "bool"
            },
            {
              "internalType": "string",
              "name": "category",
              "type": "string"
            },
            {
              "internalType": "string",
              "name": "title",
              "type": "string"
            },
            {
              "internalType": "string",
              "name": "description",
              "type": "string"
            }
          ],
          "internalType": "struct ChainTorqueMarketplace.MarketItem[]",
          "name": "",
          "type": "tuple[]"
        }
      ],
      "stateMutability": "view",
      "type": "function"
    },
    {
      "inputs": [],
      "name": "fetchMyNFTs",
      "outputs": [
        {
          "components": [
            {
              "internalType": "uint256",
              "name": "tokenId",
              "type": "uint256"
            },
            {
              "internalType": "address payable",
              "name": "seller",
              "type": "address"
            },
            {
              "internalType": "address payable",
              "name": "owner",
              "type": "address"
            },
            {
              "internalType": "uint256",
              "name": "price",
              "type": "uint256"
            },
            {
              "internalType": "bool",
              "name": "sold",
              "type": "bool"
            },
            {
              "internalType": "string",
              "name": "category",
              "type": "string"
            },
            {
              "internalType": "string",
              "name": "title",
              "type": "string"
            },
            {
              "internalType": "string",
              "name": "description",
              "type": "string"
            }
          ],
          "internalType": "struct ChainTorqueMarketplace.MarketItem[]",
          "name": "",
          "type": "tuple[]"
        }
      ],
      "stateMutability": "view",
      "type": "function"
    },
    {
      "inputs": [
        {
          "internalType": "uint256",
          "name": "tokenId",
          "type": "uint256"
        }
      ],
      "name": "getApproved",
      "outputs": [
        {
          "internalType": "address",
          "name": "",
          "type": "address"
        }
      ],
      "stateMutability": "view",
      "type": "function"
    },
    {
      "inputs": [],
      "name": "getListingPrice",
      "outputs": [
        {
          "internalType": "uint256",
          "name": "",
          "type": "uint256"
        }
      ],
      "stateMutability": "view",
      "type": "function"
    },
    {
      "inputs": [
        {
          "internalType": "uint256",
          "name": "tokenId",
          "type": "uint256"
        }
      ],
      "name": "getMarketItem",
      "outputs": [
        {
          "components": [
            {
              "internalType": "uint256",
              "name": "tokenId",
              "type": "uint256"
            },
            {
              "internalType": "address payable",
              "name": "seller",
              "type": "address"
            },
            {
              "internalType": "address payable",
              "name": "owner",
              "type": "address"
            },
            {
              "internalType": "uint256",
              "name": "price",
              "type": "uint256"
            },
            {
              "internalType": "bool",
              "name": "sold",
              "type": "bool"
            },
            {
              "internalType": "string",
              "name": "category",
              "type": "string"
            },
            {
              "internalType": "string",
              "name": "title",
              "type": "string"
            },
            {
              "internalType": "string",
              "name": "description",
              "type": "string"
            }
          ],
          "internalType": "struct ChainTorqueMarketplace.MarketItem",
          "name": "",
          "type": "tuple"
        }
      ],
      "stateMutability": "view",
      "type": "function"
    },
    {
      "inputs": [],
      "name": "getMarketplaceStats",
      "outputs": [
        {
          "internalType": "uint256",
          "name": "",
          "type": "uint256"
        },
        {
          "internalType": "uint256",
          "name": "",
          "type": "uint256"
        },
        {
          "internalType": "uint256",
          "name": "",
          "type": "uint256"
        }
      ],
      "stateMutability": "view",
      "type": "function"
    },
    {
      "inputs": [
        {
          "internalType": "address",
          "name": "owner",
          "type": "address"
        },
        {
          "internalType": "address",
          "name": "operator",
          "type": "address"
        }
      ],
      "name": "isApprovedForAll",
      "outputs": [
        {
          "internalType": "bool",
          "name": "",
          "type": "bool"
        }
      ],
      "stateMutability": "view",
      "type": "function"
    },
    {
      "inputs": [],
      "name": "name",
      "outputs": [
        {
          "internalType": "string",
          "name": "",
          "type": "string"
        }
      ],
      "stateMutability": "view",
      "type": "function"
    },
    {
      "inputs": [],
      "name": "owner",
      "outputs": [
        {
          "internalType": "address",
          "name": "",
          "type": "address"
        }
      ],
      "stateMutability": "view",
      "type": "function"
    },
    {
      "inputs": [
        {
          "internalType": "uint256",
          "name": "tokenId",
          "type": "uint256"
        }
      ],
      "name": "ownerOf",
      "outputs": [
        {
          "internalType": "address",
          "name": "",
          "type": "address"
        }
      ],
      "stateMutability": "view",
      "type": "function"
    },
    {
      "inputs": [],
      "name": "renounceOwnership",
      "outputs": [],
      "stateMutability": "nonpayable",
      "type": "function"
    },
    {
      "inputs": [
        {
          "internalType": "uint256",
          "name": "tokenId",
          "type": "uint256"
        },
        {
          "internalType": "uint256",
          "name": "price",
          "type": "uint256"
        }
      ],
      "name": "resellToken",
      "outputs": [],
      "stateMutability": "payable",
      "type": "function"
    },
    {
      "inputs": [
        {
          "internalType": "address",
          "name": "from",
          "type": "address"
        },
        {
          "internalType": "address",
          "name": "to",
          "type": "address"
        },
        {
          "internalType": "uint256",
          "name": "tokenId",
          "type": "uint256"
        }
      ],
      "name": "safeTransferFrom",
      "outputs": [],
      "stateMutability": "nonpayable",
      "type": "function"
    },
    {
      "inputs": [
        {
          "internalType": "address",
          "name": "from",
          "type": "address"
        },
        {
          "internalType": "address",
          "name": "to",
          "type": "address"
        },
        {
          "internalType": "uint256",
          "name": "tokenId",
          "type": "uint256"
        },
        {
          "internalType": "bytes",
          "name": "data",
          "type": "bytes"
        }
      ],
      "name": "safeTransferFrom",
      "outputs": [],
      "stateMutability": "nonpayable",
      "type": "function"
    },
    {
      "inputs": [
        {
          "internalType": "address",
          "name": "operator",
          "type": "address"
        },
        {
          "internalType": "bool",
          "name": "approved",
          "type": "bool"
        }
      ],
      "name": "setApprovalForAll",
      "outputs": [],
      "stateMutability": "nonpayable",
      "type": "function"
    },
    {
      "inputs": [
        {
          "internalType": "bytes4",
          "name": "interfaceId",
          "type": "bytes4"
        }
      ],
      "name": "supportsInterface",
      "outputs": [
        {
          "internalType": "bool",
          "name": "",
          "type": "bool"
        }
      ],
      "stateMutability": "view",
      "type": "function"
    },
    {
      "inputs": [],
      "name": "symbol",
      "outputs": [
        {
          "internalType": "string",
          "name": "",
          "type": "string"
        }
      ],
      "stateMutability": "view",
      "type": "function"
    },
    {
      "inputs": [
        {
          "internalType": "uint256",
          "name": "tokenId",
          "type": "uint256"
        }
      ],
      "name": "tokenURI",
      "outputs": [
        {
          "internalType": "string",
          "name": "",
          "type": "string"
        }
      ],
      "stateMutability": "view",
      "type": "function"
    },
    {
      "inputs": [
        {
          "internalType": "address",
          "name": "from",
          "type": "address"
        },
        {
          "internalType": "address",
          "name": "to",
          "type": "address"
        },
        {
          "internalType": "uint256",
          "name": "tokenId",
          "type": "uint256"
        }
      ],
      "name": "transferFrom",
      "outputs": [],
      "stateMutability": "nonpayable",
      "type": "function"
    },
    {
      "inputs": [
        {
          "internalType": "address",
          "name": "newOwner",
          "type": "address"
        }
      ],
      "name": "transferOwnership",
      "outputs": [],
      "stateMutability": "nonpayable",
      "type": "function"
    },
    {
      "inputs": [
        {
          "internalType": "uint256",
          "name": "_listingPrice",
          "type": "uint256"
        }
      ],
      "name": "updateListingPrice",
      "outputs": [],
      "stateMutability": "payable",
      "type": "function"
    }
  ],
  "bytecode": "0x60806040526658d15e17628000600b553480156200001c57600080fd5b506040518060400160405280600f81526020016e10da185a5b951bdc9c5d5948139195608a1b8152506040518060400160405280600381526020016243545160e81b815250816000908162000072919062000191565b50600162000081828262000191565b505060016007555062000094336200009a565b6200025d565b600880546001600160a01b038381166001600160a01b0319831681179093556040519116919082907f8be0079c531659141344cd1fd0a4f28419497f9722a3daafe3b4186f6b6457e090600090a35050565b634e487b7160e01b600052604160045260246000fd5b600181811c908216806200011757607f821691505b6020821081036200013857634e487b7160e01b600052602260045260246000fd5b50919050565b601f8211156200018c57600081815260208120601f850160051c81016020861015620001675750805b601f850160051c820191505b81811015620001885782815560010162000173565b5050505b505050565b81516001600160401b03811115620001ad57620001ad620000ec565b620001c581620001be845462000102565b846200013e565b602080601f831160018114620001fd5760008415620001e45750858301515b600019600386901b1c1916600185901b17855562000188565b600085815260208120601f198616915b828110156200022e578886015182559484019460019091019084016200020d565b50858210156200024d5787850151600019600388901b60f8161c191681555b5050505050600190811b01905550565b612f1e806200026d6000396000f3fe6080604052600436106101815760003560e01c8063812d966a116100d1578063b88d4fde1161008a578063c87b56dd11610064578063c87b56dd14610440578063e219fc7514610460578063e985e9c514610473578063f2fde38b1461049357600080fd5b8063b88d4fde146103e0578063be9af53614610400578063c7be7a491461041357600080fd5b8063812d966a146103375780638da5cb5b1461036757806395d89b41146103855780639e0d2da81461039a578063a22cb465146103ad578063ae677aa3146103cd57600080fd5b8063202e37401161013e57806345f8fa801161011857806345f8fa80146102cd5780636352211e146102e257806370a0823114610302578063715018a61461032257600080fd5b8063202e37401461027857806323b872dd1461028d57806342842e0e146102ad57600080fd5b806301ffc9a71461018657806306fdde03146101bb578063081812fc146101dd578063095ea7b3146102155780630f08efe01461023757806312e8558514610259575b600080fd5b34801561019257600080fd5b506101a66101a1366004612670565b6104b3565b60405190151581526020015b60405180910390f35b3480156101c757600080fd5b506101d06104de565b6040516101b291906126dd565b3480156101e957600080fd5b506101fd6101f83660046126f0565b610570565b6040516001600160a01b0390911681526020016101b2565b34801561022157600080fd5b50610235610230366004612725565b610597565b005b34801561024357600080fd5b5061024c6106b1565b6040516101b291906127ee565b34801561026557600080fd5b50600b545b6040519081526020016101b2565b34801561028457600080fd5b5061024c6109e6565b34801561029957600080fd5b506102356102a8366004612850565b610d58565b3480156102b957600080fd5b506102356102c8366004612850565b610d89565b3480156102d957600080fd5b5061024c610da4565b3480156102ee57600080fd5b506101fd6102fd3660046126f0565b611116565b34801561030e57600080fd5b5061026a61031d36600461288c565b611176565b34801561032e57600080fd5b506102356111fc565b34801561034357600080fd5b5061034c611210565b604080519384526020840192909252908201526060016101b2565b34801561037357600080fd5b506008546001600160a01b03166101fd565b34801561039157600080fd5b506101d061122f565b61026a6103a8366004612953565b61123e565b3480156103b957600080fd5b506102356103c8366004612a0a565b611299565b6102356103db3660046126f0565b6112a8565b3480156103ec57600080fd5b506102356103fb366004612a46565b6112b5565b61023561040e3660046126f0565b6112ed565b34801561041f57600080fd5b5061043361042e3660046126f0565b6114fd565b6040516101b29190612ac2565b34801561044c57600080fd5b506101d061045b3660046126f0565b611728565b61023561046e366004612ad5565b611838565b34801561047f57600080fd5b506101a661048e366004612af7565b611942565b34801561049f57600080fd5b506102356104ae36600461288c565b611970565b60006001600160e01b03198216632483248360e11b14806104d857506104d8826119e6565b92915050565b6060600080546104ed90612b2a565b80601f016020809104026020016040519081016040528092919081815260200182805461051990612b2a565b80156105665780601f1061053b57610100808354040283529160200191610566565b820191906000526020600020905b81548152906001019060200180831161054957829003601f168201915b5050505050905090565b600061057b82611a36565b506000908152600460205260409020546001600160a01b031690565b60006105a282611116565b9050806001600160a01b0316836001600160a01b0316036106145760405162461bcd60e51b815260206004820152602160248201527f4552433732313a20617070726f76616c20746f2063757272656e74206f776e656044820152603960f91b60648201526084015b60405180910390fd5b336001600160a01b038216148061063057506106308133611942565b6106a25760405162461bcd60e51b815260206004820152603d60248201527f4552433732313a20617070726f76652063616c6c6572206973206e6f7420746f60448201527f6b656e206f776e6572206f7220617070726f76656420666f7220616c6c000000606482015260840161060b565b6106ac8383611a95565b505050565b606060006106be60095490565b905060006106cb600a5490565b6009546106d89190612b7a565b90506000808267ffffffffffffffff8111156106f6576106f66128a7565b60405190808252806020026020018201604052801561072f57816020015b61071c612601565b8152602001906001900390816107145790505b50905060005b848110156109dd5730600c600061074d846001612b8d565b81526020810191909152604001600020600201546001600160a01b0316036109cb57600061077c826001612b8d565b6000818152600c60209081526040918290208251610100810184528154815260018201546001600160a01b039081169382019390935260028201549092169282019290925260038201546060820152600482015460ff161515608082015260058201805493945091929091839160a0840191906107f890612b2a565b80601f016020809104026020016040519081016040528092919081815260200182805461082490612b2a565b80156108715780601f1061084657610100808354040283529160200191610871565b820191906000526020600020905b81548152906001019060200180831161085457829003601f168201915b5050505050815260200160068201805461088a90612b2a565b80601f01602080910402602001604051908101604052809291908181526020018280546108b690612b2a565b80156109035780601f106108d857610100808354040283529160200191610903565b820191906000526020600020905b8154815290600101906020018083116108e657829003601f168201915b5050505050815260200160078201805461091c90612b2a565b80601f016020809104026020016040519081016040528092919081815260200182805461094890612b2a565b80156109955780601f1061096a57610100808354040283529160200191610995565b820191906000526020600020905b81548152906001019060200180831161097857829003601f168201915b5050505050815250508486815181106109b0576109b0612ba0565b60209081029190910101526109c6600186612b8d565b945050505b806109d581612bb6565b915050610735565b50949350505050565b606060006109f360095490565b905060008060005b83811015610a555733600c6000610a13846001612b8d565b81526020810191909152604001600020600201546001600160a01b031603610a4357610a40600184612b8d565b92505b80610a4d81612bb6565b9150506109fb565b5060008267ffffffffffffffff811115610a7157610a716128a7565b604051908082528060200260200182016040528015610aaa57816020015b610a97612601565b815260200190600190039081610a8f5790505b50905060005b848110156109dd5733600c6000610ac8846001612b8d565b81526020810191909152604001600020600201546001600160a01b031603610d46576000610af7826001612b8d565b6000818152600c60209081526040918290208251610100810184528154815260018201546001600160a01b039081169382019390935260028201549092169282019290925260038201546060820152600482015460ff161515608082015260058201805493945091929091839160a084019190610b7390612b2a565b80601f0160208091040260200160405190810160405280929190818152602001828054610b9f90612b2a565b8015610bec5780601f10610bc157610100808354040283529160200191610bec565b820191906000526020600020905b815481529060010190602001808311610bcf57829003601f168201915b50505050508152602001600682018054610c0590612b2a565b80601f0160208091040260200160405190810160405280929190818152602001828054610c3190612b2a565b8015610c7e5780601f10610c5357610100808354040283529160200191610c7e565b820191906000526020600020905b815481529060010190602001808311610c6157829003601f168201915b50505050508152602001600782018054610c9790612b2a565b80601f0160208091040260200160405190810160405280929190818152602001828054610cc390612b2a565b8015610d105780601f10610ce557610100808354040283529160200191610d10565b820191906000526020600020905b815481529060010190602001808311610cf357829003601f168201915b505050505081525050848681518110610d2b57610d2b612ba0565b6020908102919091010152610d41600186612b8d565b945050505b80610d5081612bb6565b915050610ab0565b610d623382611b03565b610d7e5760405162461bcd60e51b815260040161060b90612bcf565b6106ac838383611b61565b6106ac838383604051806020016040528060008152506112b5565b60606000610db160095490565b905060008060005b83811015610e135733600c6000610dd1846001612b8d565b81526020810191909152604001600020600101546001600160a01b031603610e0157610dfe600184612b8d565b92505b80610e0b81612bb6565b915050610db9565b5060008267ffffffffffffffff811115610e2f57610e2f6128a7565b604051908082528060200260200182016040528015610e6857816020015b610e55612601565b815260200190600190039081610e4d5790505b50905060005b848110156109dd5733600c6000610e86846001612b8d565b81526020810191909152604001600020600101546001600160a01b031603611104576000610eb5826001612b8d565b6000818152600c60209081526040918290208251610100810184528154815260018201546001600160a01b039081169382019390935260028201549092169282019290925260038201546060820152600482015460ff161515608082015260058201805493945091929091839160a084019190610f3190612b2a565b80601f0160208091040260200160405190810160405280929190818152602001828054610f5d90612b2a565b8015610faa5780601f10610f7f57610100808354040283529160200191610faa565b820191906000526020600020905b815481529060010190602001808311610f8d57829003601f168201915b50505050508152602001600682018054610fc390612b2a565b80601f0160208091040260200160405190810160405280929190818152602001828054610fef90612b2a565b801561103c5780601f106110115761010080835404028352916020019161103c565b820191906000526020600020905b81548152906001019060200180831161101f57829003601f168201915b5050505050815260200160078201805461105590612b2a565b80601f016020809104026020016040519081016040528092919081815260200182805461108190612b2a565b80156110ce5780601f106110a3576101008083540402835291602001916110ce565b820191906000526020600020905b8154815290600101906020018083116110b157829003601f168201915b5050505050815250508486815181106110e9576110e9612ba0565b60209081029190910101526110ff600186612b8d565b945050505b8061110e81612bb6565b915050610e6e565b6000818152600260205260408120546001600160a01b0316806104d85760405162461bcd60e51b8152602060048201526018602482015277115490cdcc8c4e881a5b9d985b1a59081d1bdad95b88125160421b604482015260640161060b565b60006001600160a01b0382166111e05760405162461bcd60e51b815260206004820152602960248201527f4552433732313a2061646472657373207a65726f206973206e6f7420612076616044820152683634b21037bbb732b960b91b606482015260840161060b565b506001600160a01b031660009081526003602052604090205490565b611204611cc5565b61120e6000611d1f565b565b600080600061121e60095490565b600a54600b54925092509250909192565b6060600180546104ed90612b2a565b6000611248611d71565b611256600980546001019055565b600061126160095490565b905061126d3382611dca565b6112778188611f55565b6112848187878787612020565b90506112906001600755565b95945050505050565b6112a43383836121c9565b5050565b6112b0611cc5565b600b55565b6112bf3383611b03565b6112db5760405162461bcd60e51b815260040161060b90612bcf565b6112e784848484612297565b50505050565b6112f5611d71565b6000818152600c602052604090206003015434811461137e576040805162461bcd60e51b81526020600482015260248101919091527f506c65617365207375626d6974207468652061736b696e67207072696365206960448201527f6e206f7264657220746f20636f6d706c65746520746865207075726368617365606482015260840161060b565b6000828152600c602052604090206004015460ff16156113d45760405162461bcd60e51b8152602060048201526011602482015270125d195b48185b1c9958591e481cdbdb19607a1b604482015260640161060b565b6000828152600c602052604090206002810180546001600160a01b0319908116331790915560048201805460ff1916600190811790915590910180549091169055611423600a80546001019055565b61142e303384611b61565b600854600b546040516001600160a01b039092169181156108fc0291906000818181858888f1935050505015801561146a573d6000803e3d6000fd5b506000828152600c60205260408082206001015490516001600160a01b03909116913480156108fc02929091818181858888f193505050501580156114b3573d6000803e3d6000fd5b50604080513381526020810183905283917f79705a7faf0849ec33d9f436aa88d50146d23806527cf13010abf315cbfe7600910160405180910390a2506114fa6001600755565b50565b611505612601565b6000828152600c60209081526040918290208251610100810184528154815260018201546001600160a01b039081169382019390935260028201549092169282019290925260038201546060820152600482015460ff161515608082015260058201805491929160a08401919061157b90612b2a565b80601f01602080910402602001604051908101604052809291908181526020018280546115a790612b2a565b80156115f45780601f106115c9576101008083540402835291602001916115f4565b820191906000526020600020905b8154815290600101906020018083116115d757829003601f168201915b5050505050815260200160068201805461160d90612b2a565b80601f016020809104026020016040519081016040528092919081815260200182805461163990612b2a565b80156116865780601f1061165b57610100808354040283529160200191611686565b820191906000526020600020905b81548152906001019060200180831161166957829003601f168201915b5050505050815260200160078201805461169f90612b2a565b80601f01602080910402602001604051908101604052809291908181526020018280546116cb90612b2a565b80156117185780601f106116ed57610100808354040283529160200191611718565b820191906000526020600020905b8154815290600101906020018083116116fb57829003601f168201915b5050505050815250509050919050565b606061173382611a36565b6000828152600660205260408120805461174c90612b2a565b80601f016020809104026020016040519081016040528092919081815260200182805461177890612b2a565b80156117c55780601f1061179a576101008083540402835291602001916117c5565b820191906000526020600020905b8154815290600101906020018083116117a857829003601f168201915b5050505050905060006117e360408051602081019091526000815290565b905080516000036117f5575092915050565b81511561182757808260405160200161180f929190612c1c565b60405160208183030381529060405292505050919050565b611830846122ca565b949350505050565b611840611d71565b6000828152600c60205260409020600201546001600160a01b031633146118bc5760405162461bcd60e51b815260206004820152602a60248201527f4f6e6c79206974656d206f776e65722063616e20706572666f726d20746869736044820152691037b832b930ba34b7b760b11b606482015260840161060b565b600b5434146118dd5760405162461bcd60e51b815260040161060b90612c4b565b6000828152600c6020526040902060048101805460ff19169055600381018290556001810180546001600160a01b03199081163317909155600290910180549091163017905561192d600a61233e565b611938333084611b61565b6112a46001600755565b6001600160a01b03918216600090815260056020908152604080832093909416825291909152205460ff1690565b611978611cc5565b6001600160a01b0381166119dd5760405162461bcd60e51b815260206004820152602660248201527f4f776e61626c653a206e6577206f776e657220697320746865207a65726f206160448201526564647265737360d01b606482015260840161060b565b6114fa81611d1f565b60006001600160e01b031982166380ac58cd60e01b1480611a1757506001600160e01b03198216635b5e139f60e01b145b806104d857506301ffc9a760e01b6001600160e01b03198316146104d8565b6000818152600260205260409020546001600160a01b03166114fa5760405162461bcd60e51b8152602060048201526018602482015277115490cdcc8c4e881a5b9d985b1a59081d1bdad95b88125160421b604482015260640161060b565b600081815260046020526040902080546001600160a01b0319166001600160a01b0384169081179091558190611aca82611116565b6001600160a01b03167f8c5be1e5ebec7d5bd14f71427d1e84f3dd0314c0f7b2291e5b200ac8c7c3b92560405160405180910390a45050565b600080611b0f83611116565b9050806001600160a01b0316846001600160a01b03161480611b365750611b368185611942565b806118305750836001600160a01b0316611b4f84610570565b6001600160a01b031614949350505050565b826001600160a01b0316611b7482611116565b6001600160a01b031614611b9a5760405162461bcd60e51b815260040161060b90612c8f565b6001600160a01b038216611bfc5760405162461bcd60e51b8152602060048201526024808201527f4552433732313a207472616e7366657220746f20746865207a65726f206164646044820152637265737360e01b606482015260840161060b565b826001600160a01b0316611c0f82611116565b6001600160a01b031614611c355760405162461bcd60e51b815260040161060b90612c8f565b600081815260046020908152604080832080546001600160a01b03199081169091556001600160a01b0387811680865260038552838620805460001901905590871680865283862080546001019055868652600290945282852080549092168417909155905184937fddf252ad1be2c89b69c2b068fc378daa952ba7f163c4a11628f55a4df523b3ef91a4505050565b6008546001600160a01b0316331461120e5760405162461bcd60e51b815260206004820181905260248201527f4f776e61626c653a2063616c6c6572206973206e6f7420746865206f776e6572604482015260640161060b565b600880546001600160a01b038381166001600160a01b0319831681179093556040519116919082907f8be0079c531659141344cd1fd0a4f28419497f9722a3daafe3b4186f6b6457e090600090a35050565b600260075403611dc35760405162461bcd60e51b815260206004820152601f60248201527f5265656e7472616e637947756172643a207265656e7472616e742063616c6c00604482015260640161060b565b6002600755565b6001600160a01b038216611e205760405162461bcd60e51b815260206004820181905260248201527f4552433732313a206d696e7420746f20746865207a65726f2061646472657373604482015260640161060b565b6000818152600260205260409020546001600160a01b031615611e855760405162461bcd60e51b815260206004820152601c60248201527f4552433732313a20746f6b656e20616c7265616479206d696e74656400000000604482015260640161060b565b6000818152600260205260409020546001600160a01b031615611eea5760405162461bcd60e51b815260206004820152601c60248201527f4552433732313a20746f6b656e20616c7265616479206d696e74656400000000604482015260640161060b565b6001600160a01b038216600081815260036020908152604080832080546001019055848352600290915280822080546001600160a01b0319168417905551839291907fddf252ad1be2c89b69c2b068fc378daa952ba7f163c4a11628f55a4df523b3ef908290a45050565b6000828152600260205260409020546001600160a01b0316611fd05760405162461bcd60e51b815260206004820152602e60248201527f45524337323155524953746f726167653a2055524920736574206f66206e6f6e60448201526d32bc34b9ba32b73a103a37b5b2b760911b606482015260840161060b565b6000828152600660205260409020611fe88282612d22565b506040518281527ff8e1a15aba9398e019f0b49df1a4fde98ee17ae345cb5f6b5e2c27f5033e8ce79060200160405180910390a15050565b600084116120705760405162461bcd60e51b815260206004820152601c60248201527f5072696365206d757374206265206174206c6561737420312077656900000000604482015260640161060b565b600b5434146120915760405162461bcd60e51b815260040161060b90612c4b565b6040805161010081018252868152336020808301918252308385019081526060840189815260006080860181815260a087018b815260c088018b905260e088018a90528d8352600c9095529690208551815593516001850180546001600160a01b03199081166001600160a01b03938416179091559251600286018054909416911617909155516003830155925160048201805460ff1916911515919091179055915190919060058201906121469082612d22565b5060c0820151600682019061215b9082612d22565b5060e082015160078201906121709082612d22565b5090505061217f333087611b61565b847f5d85442b762d770d3f8d5da68357afcc24a270db6bdcecaed959e6139200a896333087600088886040516121ba96959493929190612de2565b60405180910390a25050505050565b816001600160a01b0316836001600160a01b03160361222a5760405162461bcd60e51b815260206004820152601960248201527f4552433732313a20617070726f766520746f2063616c6c657200000000000000604482015260640161060b565b6001600160a01b03838116600081815260056020908152604080832094871680845294825291829020805460ff191686151590811790915591519182527f17307eab39ab6107e8899845ad3d59bd9653f200f220920489ca2b5937696c31910160405180910390a3505050565b6122a2848484611b61565b6122ae84848484612395565b6112e75760405162461bcd60e51b815260040161060b90612e3c565b60606122d582611a36565b60006122ec60408051602081019091526000815290565b9050600081511161230c5760405180602001604052806000815250612337565b8061231684612496565b604051602001612327929190612c1c565b6040516020818303038152906040525b9392505050565b80548061238d5760405162461bcd60e51b815260206004820152601b60248201527f436f756e7465723a2064656372656d656e74206f766572666c6f770000000000604482015260640161060b565b600019019055565b60006001600160a01b0384163b1561248b57604051630a85bd0160e11b81526001600160a01b0385169063150b7a02906123d9903390899088908890600401612e8e565b6020604051808303816000875af1925050508015612414575060408051601f3d908101601f1916820190925261241191810190612ecb565b60015b612471573d808015612442576040519150601f19603f3d011682016040523d82523d6000602084013e612447565b606091505b5080516000036124695760405162461bcd60e51b815260040161060b90612e3c565b805181602001fd5b6001600160e01b031916630a85bd0160e11b149050611830565b506001949350505050565b606060006124a383612529565b600101905060008167ffffffffffffffff8111156124c3576124c36128a7565b6040519080825280601f01601f1916602001820160405280156124ed576020820181803683370190505b5090508181016020015b600019016f181899199a1a9b1b9c1cb0b131b232b360811b600a86061a8153600a85049450846124f757509392505050565b60008072184f03e93ff9f4daa797ed6e38ed64bf6a1f0160401b83106125685772184f03e93ff9f4daa797ed6e38ed64bf6a1f0160401b830492506040015b6d04ee2d6d415b85acef81000000008310612594576d04ee2d6d415b85acef8100000000830492506020015b662386f26fc1000083106125b257662386f26fc10000830492506010015b6305f5e10083106125ca576305f5e100830492506008015b61271083106125de57612710830492506004015b606483106125f0576064830492506002015b600a83106104d85760010192915050565b6040518061010001604052806000815260200160006001600160a01b0316815260200160006001600160a01b03168152602001600081526020016000151581526020016060815260200160608152602001606081525090565b6001600160e01b0319811681146114fa57600080fd5b60006020828403121561268257600080fd5b81356123378161265a565b60005b838110156126a8578181015183820152602001612690565b50506000910152565b600081518084526126c981602086016020860161268d565b601f01601f19169290920160200192915050565b60208152600061233760208301846126b1565b60006020828403121561270257600080fd5b5035919050565b80356001600160a01b038116811461272057600080fd5b919050565b6000806040838503121561273857600080fd5b61274183612709565b946020939093013593505050565b60006101008251845260018060a01b036020840151166020850152604083015161278460408601826001600160a01b03169052565b506060830151606085015260808301516127a2608086018215159052565b5060a08301518160a08601526127ba828601826126b1565b91505060c083015184820360c08601526127d482826126b1565b91505060e083015184820360e086015261129082826126b1565b6000602080830181845280855180835260408601915060408160051b870101925083870160005b8281101561284357603f1988860301845261283185835161274f565b94509285019290850190600101612815565b5092979650505050505050565b60008060006060848603121561286557600080fd5b61286e84612709565b925061287c60208501612709565b9150604084013590509250925092565b60006020828403121561289e57600080fd5b61233782612709565b634e487b7160e01b600052604160045260246000fd5b600067ffffffffffffffff808411156128d8576128d86128a7565b604051601f8501601f19908116603f01168101908282118183101715612900576129006128a7565b8160405280935085815286868601111561291957600080fd5b858560208301376000602087830101525050509392505050565b600082601f83011261294457600080fd5b612337838335602085016128bd565b600080600080600060a0868803121561296b57600080fd5b853567ffffffffffffffff8082111561298357600080fd5b61298f89838a01612933565b96506020880135955060408801359150808211156129ac57600080fd5b6129b889838a01612933565b945060608801359150808211156129ce57600080fd5b6129da89838a01612933565b935060808801359150808211156129f057600080fd5b506129fd88828901612933565b9150509295509295909350565b60008060408385031215612a1d57600080fd5b612a2683612709565b915060208301358015158114612a3b57600080fd5b809150509250929050565b60008060008060808587031215612a5c57600080fd5b612a6585612709565b9350612a7360208601612709565b925060408501359150606085013567ffffffffffffffff811115612a9657600080fd5b8501601f81018713612aa757600080fd5b612ab6878235602084016128bd565b91505092959194509250565b602081526000612337602083018461274f565b60008060408385031215612ae857600080fd5b50508035926020909101359150565b60008060408385031215612b0a57600080fd5b612b1383612709565b9150612b2160208401612709565b90509250929050565b600181811c90821680612b3e57607f821691505b602082108103612b5e57634e487b7160e01b600052602260045260246000fd5b50919050565b634e487b7160e01b600052601160045260246000fd5b818103818111156104d8576104d8612b64565b808201808211156104d8576104d8612b64565b634e487b7160e01b600052603260045260246000fd5b600060018201612bc857612bc8612b64565b5060010190565b6020808252602d908201527f4552433732313a2063616c6c6572206973206e6f7420746f6b656e206f776e6560408201526c1c881bdc88185c1c1c9bdd9959609a1b606082015260800190565b60008351612c2e81846020880161268d565b835190830190612c4281836020880161268d565b01949350505050565b60208082526024908201527f5072696365206d75737420626520657175616c20746f206c697374696e6720706040820152637269636560e01b606082015260800190565b60208082526025908201527f4552433732313a207472616e736665722066726f6d20696e636f72726563742060408201526437bbb732b960d91b606082015260800190565b601f8211156106ac57600081815260208120601f850160051c81016020861015612cfb5750805b601f850160051c820191505b81811015612d1a57828155600101612d07565b505050505050565b815167ffffffffffffffff811115612d3c57612d3c6128a7565b612d5081612d4a8454612b2a565b84612cd4565b602080601f831160018114612d855760008415612d6d5750858301515b600019600386901b1c1916600185901b178555612d1a565b600085815260208120601f198616915b82811015612db457888601518255948401946001909101908401612d95565b5085821015612dd25787850151600019600388901b60f8161c191681555b5050505050600190811b01905550565b6001600160a01b0387811682528616602082015260408101859052831515606082015260c060808201819052600090612e1d908301856126b1565b82810360a0840152612e2f81856126b1565b9998505050505050505050565b60208082526032908201527f4552433732313a207472616e7366657220746f206e6f6e20455243373231526560408201527131b2b4bb32b91034b6b83632b6b2b73a32b960711b606082015260800190565b6001600160a01b0385811682528416602082015260408101839052608060608201819052600090612ec1908301846126b1565b9695505050505050565b600060208284031215612edd57600080fd5b81516123378161265a56fea2646970667358221220c6fbddbc0fb8edefb5f1e725f053edae138575a8504775a1a1a4b6af66a134dd64736f6c63430008130033",
  "linkReferences": {},
  "deployedLinkReferences": {}
}